:100000000C94A1000C94D8050C94B1050C948A05AD
:100010000C9463050C94C9000C94C9000C943C0525
:100020000C94C9000C94FF050C944A0E0C948802A1
:100030000C94C9000C94C9000C94C9000C94C9001C
:100040000C94C9000C94C9000C94C9000C94C9000C
:100050000C94C9000C94C9000C94C9000C94F204CF
:100060000C94C9000C94C9000C94C9000C94C900EC
:100070000C94C9000C94C9000C94C9000C94C900DC
:100080000C94C9000C94C9000C94C9000C94C900CC
:100090000C94DD0A0C94C9000C94C9000C94C9009E
:1000A0000C94C9000C94E1080C94C9006D562020F2
:1000B0002000423D006D5620202000423D00080BEC
:1000C0000002020201000904000001020200000512
:1000D0002400100105240101010424020605240660
:1000E00000010705810310004009040100020A0015
:1000F00000000705020240000007058302400000DF
:100100000403090412010002EF020140412336807A
:1001100000010102030141726475696E6F204C4C4D
:10012000430041726475696E6F204C656F6E617239
:10013000646F00070605040100080A0B0C0D090096
:10014000D90F11241FBECFEFDAE0DEBFCDBF11E023
:10015000A0E0B1E0ECE7F4E202C005900D92AC360D
:10016000B107D9F722E0ACE6B1E001C01D92A83793
:10017000B207E1F710E0C1EAD0E004C02197FE0128
:100180000E943112C03AD107C9F70E94BC0E0C94EC
:100190003C120C94000040918701509188012091FD
:1001A00085013091860142175307B4F49091E8001D
:1001B0009570E1F39091E80092FD19C08093F100F1
:1001C000809187019091880101968F739927892BDF
:1001D00019F48EEF8093E800809187019091880157
:1001E0000196909388018093870181E0089580E0D3
:1001F0000895CF92DF92EF92FF920F931F93CF93C8
:10020000DF931F92CDB7DEB7182F062FE42E862F6F
:10021000880F8E5F99830E94CB0083E00E94CB0001
:10022000F12EC12E9981D92E8C2D8F19801798F41B
:10023000F601E7FE02C0849101C080810E94CB00DC
:10024000182F80E00E94CB008123FFEFCF1ADF0A36
:100250008111EACF01C081E00F90DF91CF911F9112
:100260000F91FF90EF90DF90CF900895DF92EF9283
:10027000FF920F931F93CF93DF93D82E8A017B01B8
:10028000E40EF51EEB01CE15DF0571F0D7FE03C0BD
:10029000FE01849101C088810E94CB0021968111CA
:1002A000F2CF8FEF9FEF01C0C801DF91CF911F9177
:1002B0000F91FF90EF90DF900895615030F0209102
:1002C000F100FC0120830196F8CF289884E6809302
:1002D00006020895CF92DF92EF92FF920F931F9341
:1002E000CF93DF936C017A018B01C0E0D0E0CE1593
:1002F000DF0589F0D8016D918D01D601ED91FC915A
:100300000190F081E02DC6010995892B11F47E0141
:1003100002C02196ECCFC701DF91CF911F910F91C1
:10032000FF90EF90DF90CF9008953FB7F8948091C1
:10033000790190917A01A0917B01B0917C0126B561
:10034000A89B05C02F3F19F00196A11DB11D3FBF0D
:10035000BA2FA92F982F8827820F911DA11DB11D9B
:10036000BC01CD0142E0660F771F881F991F4A9597
:10037000D1F7089508950F931F93CF93DF931F92A2
:10038000CDB7DEB782E0898342E450E06EEB70E0E7
:1003900080E80E9436010E94360EDC0112960D9113
:1003A0001C9113970115110569F0D801ED91FC918D
:1003B0000280F381E02DBE016F5F7F4FC801099578
:1003C00097FF07C089810F90DF91CF911F910F9107
:1003D0000895F80100851185E5CFFF920F931F93D3
:1003E000CF93DF93EC01162F042FF22E8C81811115
:1003F0004CC081E08C83E881F9810480F581E02D97
:10040000CE01099521E040E063E0CE010E94ED01BC
:100410008FE991E40197F1F700C0000021E040E08E
:1004200063E0CE010E94ED0187E592E00197F1F7CC
:1004300000C0000021E040E063E0CE010E94ED0139
:1004400021E040E062E0CE010E94ED0168E2CE01D1
:100450000E94820268E0CE010E9482021D8261E059
:10046000CE010E9482028FE39FE10197F1F700C065
:10047000000066E0CE010E94820282E08E836CE082
:10048000CE010E94820284E08D83E881F98106809A
:10049000F781E02D2F2D402F612FCE01099595EC8E
:1004A0009A95F1F70000DF91CF911F910F91FF9086
:1004B0000895CF92DF92EF92FF920F931F93CF9305
:1004C000DF936C018A01EB017B01E40EF51ECE1572
:1004D000DF0539F0699120E041E0C6010E94ED019D
:1004E000F6CFC801DF91CF911F910F91FF90EF9050
:1004F000DF90CF90089520E041E00E94ED0181E07F
:1005000090E0089520E040E00C94ED010E94371245
:100510001F920F920FB60F921124CF92DF92EF929B
:10052000FF920F931F932F933F934F935F936F937C
:100530007F938F939F93AF93BF93EF93FF93CF934B
:10054000DF93CDB7DEB76C97DEBFCDBF1092E90069
:100550008091E80083FFEDC168E0CE0145960E94DE
:100560005D0182EF8093E8008D8987FF05C090913F
:10057000E80090FFFCCF03C09EEF9093E800982F17
:10058000907609F0C6C09E892F89188D91110CC0F4
:10059000803829F480918A018093F10002C0109282
:1005A000F1001092F10048C1422F50E0512B9130E0
:1005B00051F4811141C14130510509F03DC1809193
:1005C0008A018D7F0BC0933061F4811135C14130B8
:1005D000510509F031C180918A01826080938A01BE
:1005E0002BC1953041F48091E80080FFFCCF20685A
:1005F0002093E30021C1963009F05FC0EB8CFC8CA6
:100600001092E9001092880110928701123091F542
:1006100010928601109285010E94BB0199E0BE01F3
:100620006F5F7F4FDB01E92F1D92EA95E9F7998310
:100630001A8391E09E8390EA98879AEF9987209198
:10064000870130918801275F3F4F3C832B838D8347
:100650001092E9001092880110928701F0928601B1
:10066000E092850149E050E080E00E9436010E945E
:10067000BB01E2C0F0928601E09285010E94360E35
:10068000DC011296ED90FC901397E114F10409F44B
:10069000C0C0D701ED91FC910480F581E02DBE0131
:1006A0006B5E7F4FC7010995009719F00CF0C4C02D
:1006B000C7C0F701E084F184E8CF973009F4C0C0E7
:1006C000983021F481E08093F100B6C0993009F0B0
:1006D000B3C0837009F0B4C0E1E2F1E081E021E051
:1006E00036E39081992361F08093E9002093EB0039
:1006F00091919093EC003093ED008F5F873089F7F4
:100700008EE78093EA001092EA008F8980930702B7
:1007100093C08B8D9C8D1092E900109288011092ED
:1007200087019093860180938501898D811156C040
:100730008E899D89913A59F4813209F081C047E050
:1007400050E068E171E080E00E94360175C09132AE
:1007500009F076C0833289F4888D90E0982F88273D
:100760002F89822BA0E0B0E080930A0190930B01C7
:10077000A0930C01B0930D015FC0803269F48091A9
:10078000E80082FFFCCF67E088E191E00E945D0114
:100790008BEF8093E80006C0823209F04DC08F894C
:1007A00080931F0180918901882319F0EEEFFAE010
:1007B00002C0E0E0F8E08091180190911901A09149
:1007C0001A01B0911B01803B9440A105B10509F0CD
:1007D0007BC080911F0180FF93C076C00E94360EBF
:1007E000DC0112960D911C9113970115110541F131
:1007F000D801ED91FC910190F081E02DBE016B5E7E
:100800007F4FC8010995811117C0F8010085118536
:10081000ECCF113009F44EC0133091F48F89882346
:1008200009F445C0823081F440E860E182E291E061
:100830000E94F900882321F08EEF8093E80079C0B0
:1008400081E28093EB0075C0813029F440E86BE0D1
:1008500086E191E0EDCF833099F70E94360EDC01FE
:100860001296ED90FC9013978E010F5F1F4F680159
:10087000E114F10479F0D701ED91FC910680F78144
:10088000E02DB801C7010995080F111DF701E0849B
:10089000F184EECFD8011C92F60101900020E9F717
:1008A0003197BF016C197D0940E0C601C1CF60E0FE
:1008B00071E002C064E071E06115710509F2FB01AD
:1008C000449150E080E840CF0FB6F894A89580910D
:1008D0006000886180936000109260000FBEA89550
:1008E000EE3F2AE0F20739F08091FE0A9091FF0A6C
:1008F00091838083A1CF1092FF0A1092FE0A9CCFB1
:10090000EE3F8AE0F80731F0808191819093FF0AF1
:100910008093FE0A87E797E7918380839BE088E1D5
:100920000FB6F894A895809360000FBE9093600076
:1009300083CF6C960FB6F894DEBF0FBECDBFDF91AC
:10094000CF91FF91EF91BF91AF919F918F917F9147
:100950006F915F914F913F912F911F910F91FF9058
:10096000EF90DF90CF900F900FBE0F901F901895D3
:100970008F929F92AF92BF92CF92DF92EF92FF92AF
:100980006B017C010E9495014B015C01C114D104F3
:10099000E104F104F1F00E949501DC01CB0188191A
:1009A0009909AA09BB09883E9340A105B10570F3D6
:1009B00021E0C21AD108E108F10888EE880E83E030
:1009C000981EA11CB11CC114D104E104F10419F753
:1009D000DDCFFF90EF90DF90CF90BF90AF909F90D2
:1009E0008F9008951F920F920FB60F9211242F939C
:1009F0003F938F939F93AF93BF9380917501909195
:100A00007601A0917701B09178013091740123E0D3
:100A1000230F2D3720F40196A11DB11D05C026E836
:100A2000230F0296A11DB11D2093740180937501BF
:100A300090937601A0937701B0937801809179012A
:100A400090917A01A0917B01B0917C010196A11D4A
:100A5000B11D8093790190937A01A0937B01B093AB
:100A60007C01BF91AF919F918F913F912F910F90FA
:100A70000FBE0F901F9018951F920F920FB60F92F6
:100A800011242F933F934F935F936F937F938F9393
:100A90009F93AF93BF93EF93FF93E0910801F09181
:100AA00009010995FF91EF91BF91AF919F918F91AE
:100AB0007F916F915F914F913F912F910F900FBE5A
:100AC0000F901F9018951F920F920FB60F9211243E
:100AD0002F933F934F935F936F937F938F939F9346
:100AE000AF93BF93EF93FF93E0910601F09107015D
:100AF0000995FF91EF91BF91AF919F918F917F9158
:100B00006F915F914F913F912F910F900FBE0F907A
:100B10001F9018951F920F920FB60F9211242F93CA
:100B20003F934F935F936F937F938F939F93AF9375
:100B3000BF93EF93FF93E0910401F09105010995B4
:100B4000FF91EF91BF91AF919F918F917F916F91A5
:100B50005F914F913F912F910F900FBE0F901F907B
:100B600018951F920F920FB60F9211242F933F9357
:100B70004F935F936F937F938F939F93AF93BF93A5
:100B8000EF93FF93E0910201F09103010995FF912A
:100B9000EF91BF91AF919F918F917F916F915F91F5
:100BA0004F913F912F910F900FBE0F901F9018956E
:100BB0001F920F920FB60F9211242F933F934F93D2
:100BC0005F936F937F938F939F93AF93BF93EF93B5
:100BD000FF93E0910001F09101010995FF91EF91E0
:100BE000BF91AF919F918F917F916F915F914F9145
:100BF0003F912F910F900FBE0F901F9018951F924D
:100C00000F920FB60F9211242F933F934F935F9340
:100C10006F937F938F939F938CB190E09595879579
:100C200095958795482F417023B130E054E0359574
:100C300027955A95E1F782279327817020917301B8
:100C4000509172016091700170917101982F9227FB
:100C5000292F30E0942F9527291B3109260F371FA4
:100C60003093710120937001209172019091730172
:100C7000821729F0491719F091E090936F01809342
:100C80007201409373019F918F917F916F915F915A
:100C90004F913F912F910F900FBE0F901F9018957D
:100CA00080916E01E0916C01F0916D01882311F04B
:100CB000849101C080819FEB980F9A3110F4805E7F
:100CC0000895803269F420916C0130916D01A90181
:100CD0004F5F5F4F50936D0140936C01232B01F7E1
:100CE00008951F93CF93DF930E945006C0E0D0E099
:100CF0001AE090ED980F9A30B8F41C9F90011D9F58
:100D0000300D1124E901C80FD11D87FDDA95E09758
:100D100080916C0190916D01019690936D0180938B
:100D20006C010E945006E5CFCE01DF91CF911F915B
:100D300008952F923F924F925F926F927F928F927F
:100D40009F92AF92BF92CF92DF92EF92FF920F935A
:100D50001F93CF93DF93CDB7DEB727970FB6F894E5
:100D6000DEBF0FBECDBF9F838E831B014D8380915D
:100D7000020281111BC081E0809302021092720076
:100D80001092C00094E09093C10099E09093C2004B
:100D90008093C30083E08093BF0088EE8093D100EE
:100DA0001092BF001092D200579A789410921701B7
:100DB0002E813F8137FF05C03F773F832E830AE0B6
:100DC00001C001E088E2089F802D112490E04E814F
:100DD0005F814817590708F4C2C0013039F4413126
:100DE000574220F0E0E1F7E2FF83EE83802E912C62
:100DF000A12CB12C8E819F81969587959C0140E016
:100E000050E029833A834B835C834E815F812A01C2
:100E1000612C712CA501940160E072E18AE790E0F9
:100E20000E94A61129813A814B815C81620F731F58
:100E3000841F951FA30192010E94F81169017A0194
:100E4000EE24FF2410E01F5FC11434E0D306E10458
:100E5000F10408F120E032E14AE750E0012E04C03D
:100E600055954795379527950A94D2F7C501B40152
:100E70000E94A61129813A814B815C81620F731F08
:100E8000841F951FA30192010E94F81169017A0144
:100E9000EE24FF24D8CF0A3049F48E819F81059635
:100EA0006AE070E00E94C2117F836E834E815F8191
:100EB000483E83E0580759F09101DA010E94171269
:100EC00028EE33E040E050E00E94F8111901109242
:100ED00072008091C100807F182B1093C100BB2746
:100EE000AF2D9E2D8D2D8093BF00C092D1002D81FE
:100EF000203108F02FE080E190E0821B910904C0CE
:100F0000F694E794D794C7948A95D2F78D2D9927B4
:100F10008093BF00C092D20030920402209203025C
:100F200089B38FEF89BB84E08093720027960FB658
:100F3000F894DEBF0FBECDBFDF91CF911F910F910F
:100F4000FF90EF90DF90CF90BF90AF909F908F90E9
:100F50007F906F905F904F903F902F9008959F8368
:100F60008E8344CF85ED8093BC008091BC0084FDCE
:100F7000FCCF1092D90108954091B301262F30E0A3
:100F8000240F311D21323105DCF42091D9012430A8
:100F9000C9F4FC0180E090E0861758F43091B30169
:100FA0002191DC01AF56BE4FA30FB11D2C930196CA
:100FB000F3CF8091B301680F6093B30180E008958F
:100FC00081E0089582E0089508958FEF9FEF0895DE
:100FD0008FEF9FEF08958091900190E0919581951A
:100FE00091090895CF93DF9300D0CDB7DEB7CB0141
:100FF000642F49835A830E94BC074981842F5A81F8
:10100000952F0F900F90DF91CF910895CF93DF939D
:101010001F92CDB7DEB7698361E0CE0101960E94D1
:10102000BC0781E090E00F90DF91CF9108955B982D
:10103000539A089560FF02C02B9A01C02B98239AFF
:1010400061FF02C0289A01C02898209A62FF02C05E
:10105000479A01C047983F9A63FF02C05D9A01C05A
:101060005D98559A5B9A539A85E08A95F1F700004E
:101070005B98539A85E08A95F1F700000895CF9226
:10108000DF92EF92FF920F931F93CF93DF9300D0E5
:1010900000D01F92CDB7DEB78C01D62EC090E200F3
:1010A0001092E200F090E9001092E900E090F00068
:1010B0001092F00030E05A993160529932603983D1
:1010C00030E02B993160239932603A8330E02899DF
:1010D0003160209932603B8330E0479931603F991D
:1010E00032603C8330E05D993160559932603D83D8
:1010F000442311F05A9A01C05A98529A21110AC0F9
:101100006D2D70E084E0759567958A95E1F7C801CB
:101110000E941A086D2D6F70C8010E941A082D8157
:1011200021FB0EF0559820FB0EF05D980EF45D9AB1
:1011300021FB0EF4559A3C8131FB0EF03F9830FBB9
:101140000EF047980EF4479A31FB0EF43F9A2B812C
:1011500021FB0EF0209820FB0EF028980EF4289A20
:1011600021FB0EF4209A3A8131FB0EF0239830FBDC
:101170000EF02B980EF42B9A31FB0EF4239A298152
:1011800021FB0EF0529820FB0EF05A980EF45A9A5A
:1011900021FB0EF4529A1092E900E092F000F092D6
:1011A000E900C092E2000F900F900F900F900F9007
:1011B000DF91CF911F910F91FF90EF90DF90CF9033
:1011C00008951F920F920FB60F9211246F927F9283
:1011D0008F929F92AF92BF92CF92DF92EF92FF9247
:1011E0000F931F932F933F934F935F936F937F932F
:1011F0008F939F93AF93BF93CF93DF93EF93FF931F
:1012000080910302909104029C0121503109309396
:10121000040220930302892B09F0B0C110927200DE
:1012200078948091C100807F84608093C10083E0C6
:101230008093BF0088EE8093D1001092BF0010927F
:10124000D20081E08093170180916C0190916D0133
:10125000892B09F493C18091010281118FC1909073
:10126000160180910002882321F08091FF018111F5
:101270007BC17724739470ECA72E7DE5B72EEAE04E
:101280006E2EF4E08F2EA0EDCA2EA7E0DA2EB4E089
:10129000EB2EF12C04EF11E0CFE0D0E00E945006DD
:1012A00020916C0130916D012F5F3F4F30936D01A4
:1012B00020936C01853609F45EC07CF5813609F413
:1012C0009EC024F58C3309F452C08E3309F44DC00E
:1012D000813209F08FC080921601D0921301C09222
:1012E0001201F0921501E092140110931101009384
:1012F0001001D0930F01C0930E0110920002909044
:1013000016018091100190911101C8CF833689F1A7
:101310000CF478C000E022E077C08D36A9F16CF4BF
:10132000873679F15CF18C3609F064C00E94710651
:1013300090931501809314014EC08237D1F14CF483
:101340008F3609F057C00E947106982E80931601BF
:10135000A5CF843789F1863709F04CC00E94710609
:1013600090930F0180930E0199CF939497CF9A9405
:1013700095CF00E01FC000E024E046C000E025E07B
:1013800043C000E027E040C00E9450068C3619F4AC
:101390001092000204C0709200021092FF0180912E
:1013A0006C0190916D01019690936D0180936C0199
:1013B00075CF01E020E028C00E947106BC01C50184
:1013C0000E94C211669EC001679E900D11249093E9
:1013D0001301809312018091120190911301609189
:1013E0001401709115010E94C21170931101609354
:1013F000100154CF10926D0110926C01BFC000E03B
:1014000029E002C000E02BE0122F3CE0939E100D7B
:1014100011240E945006982F977F933259F480919F
:101420006C0190916D01019690936D0180936C0118
:101430001F5FEFCF8D3269F480916C0190916D0147
:10144000019690936D0180936C0111500E9450069B
:10145000F1CFC0911001D09111018153883058F41F
:10146000C0911201D09113010E947106BC01CE01FE
:101470000E94C211EB017E01F694E7940E9450068F
:101480008E3261F480916C0190916D010196909380
:101490006D0180936C01CE0DDF1DEECFFE018091BA
:1014A0000002882349F0CE01969587958093FF012D
:1014B0008091FF01E81BF109C0910E01D0910F014D
:1014C000011104C01F3F11F0C11105C040E0BF0170
:1014D00088EE93E046C0113130F020EF210F203626
:1014E00018F02FE501C020E0822F6CE00E94B611B9
:1014F000682F74EF7603A0011124BA01620F711DE9
:101500009B016C30710540F4220F331FD901A95D96
:10151000BE4F2D913C9102C020E030E0873081F039
:10152000082E02C0220F331F0A94E2F7823028F0FF
:10153000C90105966AE070E00CC0C90190580CC062
:10154000C90126E0880F991F2A95E1F7029665E008
:1015500070E00E94C211CB014C2FC03108F04FE067
:10156000BF010E9499060AC06091FF0170E040E04F
:1015700088EE93E00E9499061092FF01FF91EF918F
:10158000DF91CF91BF91AF919F918F917F916F919B
:101590005F914F913F912F911F910F91FF90EF908D
:1015A000DF90CF90BF90AF909F908F907F906F9083
:1015B0000F900FBE0F901F9018951F920F920FB6AD
:1015C0000F9211242F933F934F935F936F937F93C9
:1015D0008F939F93AF93BF93EF93FF938091B90045
:1015E000887F803609F49CC068F5883209F45BC0B6
:1015F00090F4803109F454C038F4882309F4F6C01B
:10160000883009F44DC0F6C0883109F44CC08032EE
:1016100009F45DC0EFC0803409F468C048F4803339
:1016200009F455C0883309F0E5C08093D801D8C0CB
:10163000803509F44FC0883509F45DC0883409F05D
:10164000D9C0D6C0883909F4C7C0A8F4883709F4CE
:1016500067C038F4883609F463C0803709F460C085
:10166000C9C0883809F4B8C0803909F45FC080382F
:1016700009F0C0C05BC0803B09F486C038F4803AF2
:1016800009F466C0883A09F47FC0B4C0803C09F40C
:10169000A7C0883C09F4A4C0883B09F48AC0AAC04A
:1016A0008091FE0110C09091FD018091FC0198177E
:1016B00070F5E091FD0181E08E0F8093FD01F0E077
:1016C000E452FE4F80818093BB0085EC86C08093FE
:1016D000D8018EC0E091FD0181E08E0F8093FD0165
:1016E0008091BB00F0E0E452FE4F80839091FD01B9
:1016F0008091FC016EC0E091FD0181E08E0F80932E
:10170000FD018091BB00F0E0E452FE4F80838091A8
:10171000DB0181116DC081E08093DA0184EA61C050
:1017200083E08093D9011092D701CFCF8091D70168
:10173000803208F051C0E091D70181E08E0F809394
:10174000D7018091BB00F0E0E954FE4F8083BDCF0C
:1017500085EC8093BC001092D9018091D701803232
:1017600030F4E091D701F0E0E954FE4F108260912F
:10177000D70170E0E091B501F091B60187EB91E0FF
:1017800009951092D70136C084E08093D901109258
:10179000B4011092B301E091B101F091B201099549
:1017A0008091B301811105C081E08093B301109253
:1017B0009101E091B40181E08E0F8093B401F0E0DB
:1017C000EF56FE4F80818093BB009091B4018091D1
:1017D000B301981708F479CF85E88093BC000AC05C
:1017E00085EC8093BC001092D90104C01092D801FE
:1017F0000E94B207FF91EF91BF91AF919F918F919E
:101800007F916F915F914F913F912F910F900FBEFC
:101810000F901F90189548E020E030E0E4E3F1E0FD
:10182000849190917B0083FB662760F970E0DB0177
:1018300055E0AA0FBB1F5A95E1F79F7DA92BA093F6
:101840007B008770806480937C0080917A00806444
:1018500080937A0080917A0086FDFCCF8091780099
:101860005091790090E0952B280F391F4150C1F617
:10187000A1E7B2E00E941712DC01CB0181509F4F1B
:10188000AF4FBF4F29E0B695A795979587952A95B5
:10189000D1F70895FC0180910702811103C08FEFF9
:1018A0009FEF08959FB7F89482E08093E90020911C
:1018B000F20030E01216130614F421E030E0211596
:1018C000310559F0289884E6809306028091F10052
:1018D00080838091F200882319F09FBFC901089589
:1018E0008BE68093E800F9CFCF93DF931F92CDB7BB
:1018F000DEB76983DC01ED91FC910280F381E02D7C
:1019000041E050E0BE016F5F7F4F09950F90DF917E
:10191000CF91089583E08093E9008091F2008823BD
:1019200019F08AE38093E8000895CF93DF931F9224
:10193000CDB7DEB7FC018485958597FD05C02FEFF7
:101940003FEF358724870BC0CE0101960E944A0CD9
:10195000019719F4898190E002C08FEF9FEF0F90FB
:10196000DF91CF9108950F931F93CF93DF931F9231
:10197000CDB7DEB78C01FC018485958597FF0EC03D
:10198000CE0101960E944A0C019719F4298130E09A
:1019900002C02FEF3FEFF80135872487F8018485D7
:1019A00095850F90DF91CF911F910F910895FC01C4
:1019B0008485958597FD0BC09FB7F89482E080934E
:1019C000E9008091F2009FBF90E0019608959FB7D3
:1019D000F89482E08093E9008091F2009FBF90E04C
:1019E00008958F929F92AF92BF920F931F93CF93C0
:1019F000DF93CDB7DEB7A1970FB6F894DEBF0FBE69
:101A0000CDBF19A2423008F44AE08E010F5D1F4F8E
:101A1000842E912CA12CB12CA50194010E94D611E9
:101A2000E62FB901CA0101501109EA3014F4E05D52
:101A300001C0E95CD801EC93232B242B252B61F703
:101A400001151105A1F0F80101900020E9F7319787
:101A5000AF01401B510BE0910802F0910902028096
:101A6000F381E02DB80188E092E0099502C080E0A2
:101A700090E0A1960FB6F894DEBF0FBECDBFDF9108
:101A8000CF911F910F91BF90AF909F908F9008952D
:101A90007F928F929F92AF92BF92CF92DF92EF92FE
:101AA000FF920F931F93CF93DF936C015B017A0139
:101AB00080911F01882309F46BC08091070288235D
:101AC00009F466C08091050280FF05C08091E000A6
:101AD00082608093E000E70110E00AEF83E0982E37
:101AE00090E4792E2AE3822E209709F448C08FB71C
:101AF000F8949092E9009091E80095FF06C09091CB
:101B0000F200272D291B922F01C090E08FBF911169
:101B10000AC0015009F43CC061E070E080E090E050
:101B20000E94B804E1CF292F30E0C217D3070CF48C
:101B30009C2F8FB7F8949092E9002091E80025FF40
:101B40001CC0292F30E0C21BD30BF501915020F0AF
:101B500041914093F100FACFA20EB31E112319F068
:101B60008092E80009C09091E80095FD06C080923F
:101B7000E80011E0209709F010E08FBFB5CF1111F8
:101B8000B6CF5D9884E680930F021E141F0444F0C4
:101B900081E090E0F6019383828380E090E001C0D1
:101BA000C701DF91CF911F910F91FF90EF90DF90D0
:101BB000CF90BF90AF909F908F907F9008950F939C
:101BC0001F93CF93DF938C01C0E0D0E0F801EC0FBE
:101BD000FD1F6491662371F0E0910802F091090203
:101BE0000190F081E02D88E092E00995892B11F0B9
:101BF0002196ECCFCE01DF91CF911F910F910895E7
:101C0000CF92DF92EF92FF92CF93DF936C01990F07
:101C1000EE08FF08F7FE1FC0E0910802F0910902EC
:101C20000190F081E02D6DE288E092E00995EC01F1
:101C300066277727CB016C197D098E099F094AE039
:101C40000E94F10C8C0F9D1FDF91CF91FF90EF90C0
:101C5000DF90CF9008954AE0C701B601DF91CF91A0
:101C6000FF90EF90DF90CF900C94F10C80911402D4
:101C700081110DC082E08093100284E080931102F4
:101C8000109213021092120281E08093140280E1FC
:101C900092E008951F920F920FB60F9211248F9326
:101CA0009F938091E1009091E100937F9093E100F8
:101CB00083FF0FC01092E90091E09093EB00109227
:101CC000EC0092E39093ED001092070298E090935D
:101CD000F00082FF20C093E09093E9009091F20021
:101CE000992319F09AE39093E80090910F029923B9
:101CF00039F090910F02915090930F02992389F13E
:101D000090910602992339F0909106029150909398
:101D10000602992341F184FF10C08091E2008E7E7B
:101D200081608093E2008091E1008F7E8093E100EA
:101D3000809105028E7E806111C080FF16C0809167
:101D4000E2008E7E80618093E2008091E1008E7ED1
:101D50008093E100809105028E7E81608093050270
:101D600004C05D9ACDCF289AD6CF9F918F910F90C6
:101D70000FBE0F901F901895789484B5826084BD33
:101D800084B5816084BD85B5826085BD85B581607F
:101D900085BD80916E00816080936E0010928100FD
:101DA00080918100826080938100809181008160B8
:101DB0008093810080918000816080938000809179
:101DC0009100826080939100809191008160809366
:101DD0009100809190008160809390008091C1007B
:101DE00084608093C1008091C10082608093C100B3
:101DF0008091C10081608093C1008091C3008160A7
:101E00008093C3008091C00082608093C000809165
:101E1000C20081608093C20080917A0084608093C8
:101E20007A0080917A00826080937A0080917A00B3
:101E3000816080937A0080917A00806880937A0034
:101E40001092070210928A01109205028091D70029
:101E500081608093D70080EA8093D80089B5806143
:101E600089BD89B5826089BD09B400FEFDCF61E0FE
:101E700070E080E090E00E94B8048091D8008F7CF0
:101E800080618093D8008091E000807F8093E000A3
:101E90008091E1008E7E8093E1008DE08093E200EE
:101EA000559A209AEEEFFFE7859194918B3F9C4DD8
:101EB00019F481E0809389010E940B0CBC0180E041
:101EC00090E00E94181160937F01709380018093CD
:101ED000810190938201C0E0D0E00E940B0C9093AE
:101EE000840180938301C0907F01D0908001E090B5
:101EF0008101F0908201BC01990F880B990B0E941F
:101F00001A11A70196010E94031020E030E048EC6E
:101F100051E40E947010A70196010E940410609382
:101F20007F017093800180938101909382010E94D0
:101F3000E21070937E0160937D0161E088E092E0A1
:101F40000E9482028FE39FE10197F1F700C0000039
:101F50008BEB90E00E94DF0D80917D0190917E01DE
:101F60000E94000E85EB90E00E94DF0D60EC88E09F
:101F700092E00E94820295EC9A95F1F7000082EBC4
:101F800090E00E94DF0D80918301909184010E9476
:101F9000000E8CEA90E00E94DF0D68EC70E080E0BB
:101FA00090E00E94B804209709F497CF0E940000A7
:101FB00094CFECE1F2E01382128288EE93E0A0E08D
:101FC000B0E084839583A683B78323E431E0318333
:101FD00020832FEF3FEF35872487ECE6F2E0138272
:101FE000128284839583A683B78383E591E09183EE
:101FF0008083E8E0F2E013821282148283E691E0AB
:102000009183808308955058BB27AA270E941B10F4
:102010000C946C110E945E1138F00E94651120F042
:1020200039F49F3F19F426F40C945B110EF4E095FB
:10203000E7FB0C945511E92F0E947D1158F3BA1754
:10204000620773078407950720F079F4A6F50C94CE
:102050009F110EF4E0950B2EBA2FA02D0B01B901A4
:1020600090010C01CA01A0011124FF27591B99F00E
:10207000593F50F4503E68F11A16F040A22F232F1A
:10208000342F4427585FF3CF469537952795A7956A
:10209000F0405395C9F77EF41F16BA0B620B730B11
:1020A000840BBAF09150A1F0FF0FBB1F661F771F82
:1020B000881FC2F70EC0BA0F621F731F841F48F437
:1020C000879577956795B795F7959E3F08F0B0CFC0
:1020D0009395880F08F09927EE0F979587950895A7
:1020E0000E9484100C946C110E94651158F00E949B
:1020F0005E1140F029F45F3F29F00C945511511105
:102100000C94A0110C945B110E947D1168F399232B
:10211000B1F3552391F3951B550BBB27AA276217E3
:102120007307840738F09F5F5F4F220F331F441FF0
:10213000AA1FA9F335D00E2E3AF0E0E832D0915024
:102140005040E695001CCAF72BD0FE2F29D0660F11
:10215000771F881FBB1F261737074807AB07B0E854
:1021600009F0BB0B802DBF01FF2793585F4F3AF05A
:102170009E3F510578F00C9455110C94A0115F3FCF
:10218000E4F3983ED4F3869577956795B795F795E0
:102190009F5FC9F7880F911D9695879597F90895C8
:1021A000E1E0660F771F881FBB1F62177307840764
:1021B000BA0720F0621B730B840BBA0BEE1F88F773
:1021C000E09508950E94E9106894B1110C94A01153
:1021D00008950E94851188F09F5798F0B92F99278C
:1021E000B751B0F0E1F0660F771F881F991F1AF002
:1021F000BA95C9F714C0B13091F00E949F11B1E0B7
:1022000008950C949F11672F782F8827B85F39F0B5
:10221000B93FCCF3869577956795B395D9F73EF49A
:1022200090958095709561957F4F8F4F9F4F089542
:10223000E89409C097FB3EF4909580957095619560
:102240007F4F8F4F9F4F9923A9F0F92F96E9BB2716
:102250009395F695879577956795B795F111F8CF92
:10226000FAF4BB0F11F460FF1BC06F5F7F4F8F4FFD
:102270009F4F16C0882311F096E911C0772321F0F3
:102280009EE8872F762F05C0662371F096E8862F8B
:1022900070E060E02AF09A95660F771F881FDAF7E2
:1022A000880F9695879597F9089597F99F6780E825
:1022B00070E060E008959FEF80EC089500240A9498
:1022C0001616170618060906089500240A94121611
:1022D0001306140605060895092E0394000C11F444
:1022E000882352F0BB0F40F4BF2B11F460FF04C0F1
:1022F0006F5F7F4F8F4F9F4F089557FD9058440F4A
:10230000551F59F05F3F71F04795880F97FB991F54
:1023100061F09F3F79F08795089512161306140611
:10232000551FF2CF4695F1DF08C01616170618069E
:10233000991FF1CF86957105610508940895E89479
:10234000BB2766277727CB0197F90895DB018F9389
:102350009F930E942612BF91AF91A29F800D911D65
:10236000A39F900DB29F900D11240895991B79E0C1
:1023700004C0991F961708F0961B881F7A95C9F715
:1023800080950895AA1BBB1B51E107C0AA1FBB1F64
:10239000A617B70710F0A61BB70B881F991F5A95F1
:1023A000A9F780959095BC01CD010895A1E21A2E60
:1023B000AA1BBB1BFD010DC0AA1FBB1FEE1FFF1FE9
:1023C000A217B307E407F50720F0A21BB30BE40B39
:1023D000F50B661F771F881F991F1A9469F7609580
:1023E0007095809590959B01AC01BD01CF0108953A
:1023F000052E97FB1EF400940E940F1257FD07D084
:102400000E94D61107FC03D04EF40C940F12509585
:102410004095309521953F4F4F4F5F4F08959095D0
:102420008095709561957F4F8F4F9F4F0895A29F24
:10243000B001B39FC001A39F700D811D1124911D98
:10244000B29F700D811D1124911D08950E941712D5
:10245000A59F900DB49F900DA49F800D911D1124F8
:102460000895EE0FFF1F0590F491E02D099481E08F
:0C24700090E0F8940C943C12F894FFCF1C
:10247C00BA01BA01BA01BA01BA01FFFFFFFF0F009E
:10248C00F401D0070400040100E10000000000008A
:10249C0000C180810000009C01B501CF01EA010759
:1024AC00022602470269028E02B502DE020A03000E
:1024BC00000000740C480DD70C950CB30C8A0C0062
:1024CC000000000608F207EB07E807E507E4070041
:0C24DC000000007B02590217083F0800B6
:00000001FF
