:100000000C94E8000C94FD0C0C94D60C0C94AF0CE2
:100010000C94880C0C9410010C9410010C94610C3D
:100020000C9410010C94240D0C94860F0C948A08E7
:100030000C9410010C9410010C9410010C941001FC
:100040000C9410010C9410010C9410010C941001EC
:100050000C9410010C9410010C9410010C94170CCA
:100060000C9410010C9410010C9410010C941001CC
:100070000C9410010C9410010C9410010C941001BC
:100080000C9410010C9410010C9410010C941001AC
:100090000C9438060C9410010C9410010C9410016F
:1000A0000C9410010C943C040C9410010B080E08E5
:1000B000FD07010807082F082F082F081208160847
:1000C0001A08200824082F082A080000000023002E
:1000D000260029002C002F0000000000240027002B
:1000E0002A002D00300000000000250028002B0011
:1000F0002E00310004040404040304050202020279
:1001000004030202020206060606060604040202B0
:100110000204040408020110408040102040804086
:10012000800802040180402010020110801020404D
:1001300040200000000200090F0000030401000C31
:1001400000000000000000000000000000000000AF
:1001500000323D00303D00080B00020202010009A0
:100160000400000102020000052400100105240122
:10017000010104240206052406000107058103107D
:10018000004009040100020A0000000705020240C5
:100190000000070583024000000403090412010067
:1001A00002EF0201404123368000010102030141B8
:1001B000726475696E6F204C4C43004172647569BE
:1001C0006E6F204C656F6E6172646F00C111F80F25
:1001D00011241FBECFEFDAE0DEBFCDBF11E0A0E0FB
:1001E000B1E0E6E9F7E202C005900D92A438B1074C
:1001F000D9F722E0A4E8B1E001C01D92A83AB20705
:10020000E1F710E0C7EED0E004C02197FE010E94A4
:100210006C12C63ED107C9F70E9464100C94BE133D
:100220000C9400008091FE01E091FF01F09100022A
:10023000882311F0849101C080819FEB980F9A313F
:1002400010F4805E0895803269F42091FF013091AE
:100250000002A9014F5F5F4F509300024093FF01DE
:10026000232B01F708951F93CF93DF930E94120170
:10027000C0E0D0E01AE090ED980F9A30B8F41C9FDF
:1002800090011D9F300D1124E901C80FD11D87FD7C
:10029000DA95E0978091FF0190910002019690938A
:1002A00000028093FF010E941201E5CFCE01DF9191
:1002B000CF911F9108952F923F924F925F926F922C
:1002C0007F928F929F92AF92BF92CF92DF92EF92E6
:1002D000FF920F931F93CF93DF93CDB7DEB727978E
:1002E0000FB6F894DEBF0FBECDBF9F838E831B0178
:1002F0004D838091FB0181111BC081E08093FB0144
:10030000109272001092C00094E09093C10099E0A6
:100310009093C2008093C30083E08093BF0088EE77
:100320008093D1001092BF001092D200579A789417
:10033000109209012E813F8137FF05C03F773F832F
:100340002E830AE001C001E088E2089F802D11247D
:1003500090E04E815F814817590708F4C2C0013010
:1003600039F44131574220F0E0E1F7E2FF83EE83B8
:10037000802E912CA12CB12C8E819F8196958795F2
:100380009C0140E050E029833A834B835C834E819B
:100390005F812A01612C712CA501940160E072E15A
:1003A0008AE790E00E94FB1129813A814B815C81B0
:1003B000620F731F841F951FA30192010E944D12AB
:1003C00069017A01EE24FF2410E01F5FC11434E0BC
:1003D000D306E104F10408F120E032E14AE750E0FD
:1003E000012E04C055954795379527950A94D2F765
:1003F000C501B4010E94FB1129813A814B815C81C6
:10040000620F731F841F951FA30192010E944D125A
:1004100069017A01EE24FF24D8CF0A3049F48E8195
:100420009F8105966AE070E00E9417127F836E83B9
:100430004E815F81483E83E0580759F09101DA010F
:100440000E94721228EE33E040E050E00E944D120C
:100450001901109272008091C100807F182B1093B7
:10046000C100BB27AF2D9E2D8D2D8093BF00C09264
:10047000D1002D81203108F02FE080E190E0821B37
:10048000910904C0F694E794D794C7948A95D2F75B
:100490008D2D99278093BF00C092D2003092FD012C
:1004A0002092FC0189B38FEF89BB84E080937200B6
:1004B00027960FB6F894DEBF0FBECDBFDF91CF9168
:1004C0001F910F91FF90EF90DF90CF90BF90AF9072
:1004D0009F908F907F906F905F904F903F902F9064
:1004E00008959F838E8344CF85ED8093BC008091D7
:1004F000BC0084FDFCCF1092D20108954091AC0164
:10050000262F30E0240F311D21323105DCF42091FB
:10051000D2012430C9F4FC0180E090E0861758F441
:100520003091AC012191DC01A657BE4FA30FB11D44
:100530002C930196F3CF8091AC01680F6093AC01CE
:1005400080E0089581E0089582E0089508958FEF96
:100550009FEF08958FEF9FEF08958091890190E0BC
:100560009195819591090895CF93DF9300D0CDB7F0
:10057000DEB7CB01642F49835A830E947E024981F2
:10058000842F5A81952F0F900F90DF91CF9108956E
:10059000CF93DF931F92CDB7DEB7698361E0CE01C1
:1005A00001960E947E0281E090E00F90DF91CF9152
:1005B00008955B98539A089560FF02C02B9A01C07A
:1005C0002B98239A61FF02C0289A01C02898209A8C
:1005D00062FF02C0479A01C047983F9A63FF02C07A
:1005E0005D9A01C05D98559A5B9A539A85E08A9509
:1005F000F1F700005B98539A85E08A95F1F70000C7
:100600000895CF92DF92EF92FF920F931F93CF93B3
:10061000DF9300D000D01F92CDB7DEB78C01D62E6D
:10062000C090E2001092E200F090E9001092E90020
:10063000E090F0001092F00030E05A993160529949
:100640003260398330E02B993160239932603A83EC
:1006500030E028993160209932603B8330E047993F
:1006600031603F9932603C8330E05D99316055994B
:1006700032603D83442311F05A9A01C05A98529A2D
:1006800021110AC06D2D70E084E0759567958A95FB
:10069000E1F7C8010E94DC026D2D6F70C8010E9455
:1006A000DC022D8121FB0EF0559820FB0EF05D98A9
:1006B0000EF45D9A21FB0EF4559A3C8131FB0EF04D
:1006C0003F9830FB0EF047980EF4479A31FB0EF43A
:1006D0003F9A2B8121FB0EF0209820FB0EF02898EA
:1006E0000EF4289A21FB0EF4209A3A8131FB0EF089
:1006F000239830FB0EF02B980EF42B9A31FB0EF45E
:10070000239A298121FB0EF0529820FB0EF05A9873
:100710000EF45A9A21FB0EF4529A1092E900E092DC
:10072000F000F092E900C092E2000F900F900F905D
:100730000F900F90DF91CF911F910F91FF90EF904D
:10074000DF90CF90089520E040E00C94A703FF9243
:100750000F931F93CF93DF93EC01162F042FF22EEC
:100760008C8181114CC081E08C83E881F981048007
:10077000F581E02DCE01099521E040E063E0CE0156
:100780000E94A7038FE991E40197F1F700C00000F0
:1007900021E040E063E0CE010E94A70387E592E0FC
:1007A0000197F1F700C0000021E040E063E0CE01D6
:1007B0000E94A70321E040E062E0CE010E94A7036F
:1007C00068E2CE010E94A30368E0CE010E94A30369
:1007D0001D8261E0CE010E94A3038FE39FE1019798
:1007E000F1F700C0000066E0CE010E94A30382E0A2
:1007F0008E836CE0CE010E94A30384E08D83E881A8
:10080000F9810680F781E02D2F2D402F612FCE0139
:10081000099595EC9A95F1F70000DF91CF911F9122
:100820000F91FF900895CF92DF92EF92FF920F9376
:100830001F93CF93DF936C018A01EB017B01E40EE0
:10084000F51ECE15DF0539F0699120E041E0C601C3
:100850000E94A703F6CFC801DF91CF911F910F919E
:10086000FF90EF90DF90CF90089520E041E00E944C
:10087000A70381E090E008951F920F920FB60F92A8
:1008800011246F927F928F929F92AF92BF92CF92DC
:10089000DF92EF92FF920F931F932F933F934F930B
:1008A0005F936F937F938F939F93AF93BF93CF93F8
:1008B000DF93EF93FF938091FC019091FD019C01E8
:1008C000215031093093FD012093FC01892B09F05F
:1008D000B0C11092720078948091C100807F8460D2
:1008E0008093C10083E08093BF0088EE8093D100A5
:1008F0001092BF001092D20081E080930901809194
:10090000FF0190910002892B09F493C18091FA01B3
:1009100081118FC1909008018091F901882321F005
:100920008091F80181117BC17724739470ECA72E1C
:100930007DE5B72EEAE06E2EF4E08F2EA0EDCA2EF4
:10094000A7E0DA2EB4E0EB2EF12C04EF11E0CFE0BB
:10095000D0E00E9412012091FF01309100022F5F30
:100960003F4F309300022093FF01853609F45EC0AB
:100970007CF5813609F49EC024F58C3309F452C00D
:100980008E3309F44DC0813209F08FC08092080186
:10099000D0920501C0920401F0920701E092060195
:1009A0001093030100930201D0930101C093000151
:1009B0001092F90190900801809102019091030139
:1009C000C8CF833689F10CF478C000E022E077C00C
:1009D0008D36A9F16CF4873679F15CF18C3609F02B
:1009E00064C00E94330190930701809306014EC0BA
:1009F0008237D1F14CF48F3609F057C00E94330191
:100A0000982E80930801A5CF843789F1863709F0A5
:100A10004CC00E943301909301018093000199CF53
:100A2000939497CF9A9495CF00E01FC000E024E004
:100A300046C000E025E043C000E027E040C00E943F
:100A400012018C3619F41092F90104C07092F90168
:100A50001092F8018091FF0190910002019690930D
:100A600000028093FF0175CF01E020E028C00E94C2
:100A70003301BC01C5010E941712669EC001679E2A
:100A8000900D11249093050180930401809104013D
:100A90009091050160910601709107010E94171263
:100AA000709303016093020154CF109200021092E0
:100AB000FF01BFC000E029E002C000E02BE0122FE0
:100AC0003CE0939E100D11240E941201982F977FF5
:100AD000933259F48091FF01909100020196909316
:100AE00000028093FF011F5FEFCF8D3269F4809188
:100AF000FF01909100020196909300028093FF0104
:100B000011500E941201F1CFC0910201D091030156
:100B10008153883058F4C0910401D09105010E949E
:100B20003301BC01CE010E941712EB017E01F69445
:100B3000E7940E9412018E3261F48091FF0190913E
:100B400000020196909300028093FF01CE0DDF1DFD
:100B5000EECFFE018091F901882349F0CE019695F0
:100B600087958093F8018091F801E81BF109C09105
:100B70000001D0910101011104C01F3F11F0C1110A
:100B800005C040E0BF0188EE93E046C0113130F06F
:100B900020EF210F203618F02FE501C020E0822F32
:100BA0006CE00E940B12682F74EF7603A0011124F1
:100BB000BA01620F711D9B016C30710540F4220F68
:100BC000331FD901AA5DBE4F2D913C9102C020E098
:100BD00030E0873081F0082E02C0220F331F0A94C4
:100BE000E2F7823028F0C90105966AE070E00CC097
:100BF000C90190580CC0C90126E0880F991F2A9599
:100C0000E1F7029665E070E00E941712CB014C2FCD
:100C1000C03108F04FE0BF010E945B010AC0609143
:100C2000F80170E040E088EE93E00E945B011092D2
:100C3000F801FF91EF91DF91CF91BF91AF919F911B
:100C40008F917F916F915F914F913F912F911F9164
:100C50000F91FF90EF90DF90CF90BF90AF909F905B
:100C60008F907F906F900F900FBE0F901F901895F0
:100C70001F920F920FB60F9211242F933F934F9311
:100C80005F936F937F938F939F93AF93BF93EF93F4
:100C9000FF938091B900887F803609F49CC068F585
:100CA000883209F45BC090F4803109F454C038F400
:100CB000882309F4F6C0883009F44DC0F6C08831A5
:100CC00009F44CC0803209F45DC0EFC0803409F4EF
:100CD00068C048F4803309F455C0883309F0E5C092
:100CE0008093D101D8C0803509F44FC0883509F40C
:100CF0005DC0883409F0D9C0D6C0883909F4C7C0AE
:100D0000A8F4883709F467C038F4883609F463C05A
:100D1000803709F460C0C9C0883809F4B8C0803988
:100D200009F45FC0803809F0C0C05BC0803B09F4A3
:100D300086C038F4803A09F466C0883A09F47FC066
:100D4000B4C0803C09F4A7C0883C09F4A4C0883B27
:100D500009F48AC0AAC08091F70110C09091F601F1
:100D60008091F501981770F5E091F60181E08E0F02
:100D70008093F601F0E0EB52FE4F80818093BB0040
:100D800085EC86C08093D1018EC0E091F60181E0B0
:100D90008E0F8093F6018091BB00F0E0EB52FE4F86
:100DA00080839091F6018091F5016EC0E091F6018B
:100DB00081E08E0F8093F6018091BB00F0E0EB5252
:100DC000FE4F80838091D40181116DC081E08093BA
:100DD000D30184EA61C083E08093D2011092D001F4
:100DE000CFCF8091D001803208F051C0E091D00186
:100DF00081E08E0F8093D0018091BB00F0E0E05540
:100E0000FE4F8083BDCF85EC8093BC001092D20151
:100E10008091D001803230F4E091D001F0E0E055D3
:100E2000FE4F10826091D00170E0E091AE01F09130
:100E3000AF0180EB91E009951092D00136C084E0BB
:100E40008093D2011092AD011092AC01E091AA0101
:100E5000F091AB0109958091AC01811105C081E051
:100E60008093AC0110928A01E091AD0181E08E0F78
:100E70008093AD01F0E0E657FE4F80818093BB0088
:100E80009091AD018091AC01981708F479CF85E875
:100E90008093BC000AC085EC8093BC001092D20104
:100EA00004C01092D1010E947402FF91EF91BF9192
:100EB000AF919F918F917F916F915F914F913F91F2
:100EC0002F910F900FBE0F901F90189540911B020D
:100ED00050911C022091190230911A0242175307B7
:100EE000B4F49091E8009570E1F39091E80092FDE0
:100EF00019C08093F10080911B0290911C02019611
:100F00008F739927892B19F48EEF8093E8008091D5
:100F10001B0290911C02019690931C0280931B026D
:100F200081E0089580E00895DF92EF92FF920F93A1
:100F30001F93CF93DF93D82E8A017B01E40EF51E19
:100F4000EB01CE15DF0571F0D7FE03C0FE018491E1
:100F500001C088810E94660721968111F2CF8FEF30
:100F60009FEF01C0C801DF91CF911F910F91FF90BA
:100F7000EF90DF900895615030F02091F100FC0176
:100F800020830196F8CF289884E680932002089564
:100F9000CF92DF92EF92FF920F931F93CF93DF9345
:100FA0006C017A018B01C0E0D0E0CE15DF0589F03D
:100FB000D8016D918D01D601ED91FC910190F081E8
:100FC000E02DC6010995892B11F47E0102C02196FE
:100FD000ECCFC701DF91CF911F910F91FF90EF9060
:100FE000DF90CF90089590E0FC013197EF30F1054C
:100FF000B0F5EA5AFF4F0C946C12809180008F7705
:1010000003C0809180008F7D80938000089580913F
:101010008000877FF9CF84B58F7702C084B58F7D3C
:1010200084BD0895809190008F7707C080919000D3
:101030008F7D03C080919000877F809390000895FA
:101040008091C0008F7703C08091C0008F7D809316
:10105000C00008958091C200877F8093C2000895E8
:101060003FB7F89480910B0290910C02A0910D0271
:10107000B0910E0226B5A89B05C02F3F19F001962E
:10108000A11DB11D3FBFBA2FA92F982F8827820F0E
:10109000911DA11DB11DBC01CD0142E0660F771F5E
:1010A000881F991F4A95D1F7089508950F931F93AC
:1010B000CF93DF931F92CDB7DEB782E0898342E4FE
:1010C00050E067E571E080E80E9494070E94720F8B
:1010D000DC0112960D911C9113970115110569F011
:1010E000D801ED91FC910280F381E02DBE016F5F8C
:1010F0007F4FC801099597FF07C089810F90DF9145
:10110000CF911F910F910895F80100851185E5CFCA
:101110000E94B9131F920F920FB60F921124CF9213
:10112000DF92EF92FF920F931F932F933F934F9372
:101130005F936F937F938F939F93AF93BF93EF933F
:10114000FF93CF93DF93CDB7DEB76C97DEBFCDBFF4
:101150001092E9008091E80083FFEDC168E0CE01C4
:1011600045960E94BB0782EF8093E8008D8987FF38
:1011700005C09091E80090FFFCCF03C09EEF9093D4
:10118000E800982F907609F0C6C09E892F89188DA7
:1011900091110CC0803829F480911E028093F100D7
:1011A00002C01092F1001092F10048C1422F50E0AD
:1011B000512B913051F4811141C14130510509F059
:1011C0003DC180911E028D7F0BC0933061F481116F
:1011D00035C14130510509F031C180911E02826054
:1011E00080931E022BC1953041F48091E80080FF6E
:1011F000FCCF20682093E30021C1963009F05FC046
:10120000EB8CFC8C1092E90010921C0210921B02D5
:10121000123091F510921A02109219020E9456088B
:1012200099E0BE016F5F7F4FDB01E92F1D92EA95C8
:10123000E9F799831A8391E09E8390EA98879AEF61
:10124000998720911B0230911C02275F3F4F3C83FE
:101250002B838D831092E90010921C0210921B02C6
:10126000F0921A02E092190249E050E080E00E94F8
:1012700094070E945608E2C0F0921A02E092190206
:101280000E94720FDC011296ED90FC901397E1140E
:10129000F10409F4C0C0D701ED91FC910480F581FF
:1012A000E02DBE016B5E7F4FC7010995009719F0D5
:1012B0000CF0C4C0C7C0F701E084F184E8CF9730D8
:1012C00009F4C0C0983021F481E08093F100B6C0E9
:1012D000993009F0B3C0837009F0B4C0EFE3F1E0D6
:1012E00081E021E036E39081992361F08093E90069
:1012F0002093EB0091919093EC003093ED008F5F81
:10130000873089F78EE78093EA001092EA008F8990
:101310008093210293C08B8D9C8D1092E9001092D6
:101320001C0210921B0290931A0280931902898D5D
:10133000811156C08E899D89913A59F4813209F004
:1013400081C047E050E068E171E080E00E949407CE
:1013500075C0913209F076C0833289F4888D90E0AF
:10136000982F88272F89822BA0E0B0E0809314016A
:1013700090931501A0931601B09317015FC08032BE
:1013800069F48091E80082FFFCCF67E088E191E09A
:101390000E94BB078BEF8093E80006C0823209F001
:1013A0004DC08F8980931F0180911D02882319F001
:1013B000EEEFFAE002C0E0E0F8E0809118019091D1
:1013C0001901A0911A01B0911B01803B9440A10525
:1013D000B10509F07BC080911F0180FF93C076C0EA
:1013E0000E94720FDC0112960D911C91139701154A
:1013F000110541F1D801ED91FC910190F081E02DB2
:10140000BE016B5E7F4FC8010995811117C0F801BD
:1014100000851185ECCF113009F44EC0133091F4E2
:101420008F89882309F445C0823081F440E860E167
:101430008BEB91E00E942710882321F08EEF8093A0
:10144000E80079C081E28093EB0075C0813029F417
:1014500040E86BE08FEA91E0EDCF833099F70E948E
:10146000720FDC011296ED90FC9013978E010F5FC6
:101470001F4F6801E114F10479F0D701ED91FC915F
:101480000680F781E02DB801C7010995080F111DED
:10149000F701E084F184EECFD8011C92F6010190AF
:1014A0000020E9F73197BF016C197D0940E0C601C2
:1014B000C1CF69E971E002C06DE971E061157105A4
:1014C00009F2FB01449150E080E840CF0FB6F89458
:1014D000A895809160008861809360001092600000
:1014E0000FBEA895EE3F2AE0F20739F08091FE0A80
:1014F0009091FF0A91838083A1CF1092FF0A1092EE
:10150000FE0A9CCFEE3F8AE0F80731F0808191819E
:101510009093FF0A8093FE0A87E797E79183808381
:101520009BE088E10FB6F894A895809360000FBE09
:101530009093600083CF6C960FB6F894DEBF0FBE19
:10154000CDBFDF91CF91FF91EF91BF91AF919F916F
:101550008F917F916F915F914F913F912F911F914B
:101560000F91FF90EF90DF90CF900F900FBE0F90F4
:101570001F9018951F93CF93DF93282F30E0F90128
:10158000EE5CFE4F8491F901ED5EFE4FD491F901BE
:10159000EC50FF4FC491CC23C9F0162F81110E944B
:1015A000F307EC2FF0E0EE0FFF1FEA51FF4FA5917C
:1015B000B4918FB7F894111105C09C91ED2FE0956F
:1015C000E92302C0EC91ED2BEC938FBFDF91CF911B
:1015D0001F910895CF93DF9390E0FC01ED5EFE4FE5
:1015E0002491FC01EC50FF4F8491882361F190E03D
:1015F000880F991FFC01E852FF4FC591D491FC015F
:10160000EA51FF4FA591B491611109C09FB7F894B9
:101610008881209582238883EC912E230BC0623031
:1016200061F49FB7F8943881822F80958323888353
:10163000EC912E2B2C939FBF06C08FB7F894E881B6
:101640002E2B28838FBFDF91CF9108955F926F92E9
:101650007F928F929F92AF92BF92CF92DF92EF9242
:10166000FF920F931F93CF93DF93FC012285338565
:10167000232B09F492C06B01EC01F12C8C85F81638
:10168000F0F40F2D10E08E859F85F801EE0FFF1FFF
:10169000EC0DFD1D91838083EA85FB85E00FF11F32
:1016A00061E080810E94BA0A8A859B85FC01E00F77
:1016B000F11F61E080810E94EA0AF394DFCF83E2A8
:1016C00090E00197F1F710E08C851817A8F4E12E4F
:1016D000F12CEA85FB85EE0DFF1D60E080810E9404
:1016E000EA0A8A859B85FC01EE0DFF1D60E0808182
:1016F0000E94BA0A1F5FE8CF0E9430084B015C01CC
:101700000E943008AB01BC01481959096A097B09DC
:101710008E859F85A0E0B0E0481759076A077B07D0
:1017200008F03BC00E9430087B01E818F908612CE2
:101730008C85681628F7062D10E0EA85FB85E00FFA
:10174000F11F208130E0F901EE5CFE4F8491F90138
:10175000ED5EFE4F7490F901EC50FF4F5490552010
:1017600071F081110E94F307E52DF0E0EE0FFF1FED
:10177000E653FF4FA591B491EC917E2261F4000FE6
:10178000111FF601E00FF11F80819181E816F90623
:1017900010F4F182E0826394CBCFDF91CF911F915F
:1017A0000F91FF90EF90DF90CF90BF90AF909F9000
:1017B0008F907F906F905F9008958F929F92AF92DD
:1017C000BF92CF92DF92EF92FF926B017C010E9459
:1017D00030084B015C01C114D104E104F104F1F0C3
:1017E0000E943008DC01CB0188199909AA09BB09BC
:1017F000883E9340A105B10570F321E0C21AD108DB
:10180000E108F10888EE880E83E0981EA11CB11C47
:10181000C114D104E104F10419F7DDCFFF90EF907A
:10182000DF90CF90BF90AF909F908F9008951F92C0
:101830000F920FB60F9211242F933F938F939F9384
:10184000AF93BF938091070290910802A091090283
:10185000B0910A023091060223E0230F2D3720F4C5
:101860000196A11DB11D05C026E8230F0296A11DFA
:10187000B11D209306028093070290930802A09363
:101880000902B0930A0280910B0290910C02A09180
:101890000D02B0910E020196A11DB11D80930B02A5
:1018A00090930C02A0930D02B0930E02BF91AF91E2
:1018B0009F918F913F912F910F900FBE0F901F908E
:1018C00018951F920F920FB60F9211242F933F93EA
:1018D0004F935F936F937F938F939F93AF93BF9338
:1018E000EF93FF93E0911201F09113010995FF919D
:1018F000EF91BF91AF919F918F917F916F915F9188
:101900004F913F912F910F900FBE0F901F90189500
:101910001F920F920FB60F9211242F933F934F9364
:101920005F936F937F938F939F93AF93BF93EF9347
:10193000FF93E0911001F09111010995FF91EF9152
:10194000BF91AF919F918F917F916F915F914F91D7
:101950003F912F910F900FBE0F901F9018951F92DF
:101960000F920FB60F9211242F933F934F935F93D3
:101970006F937F938F939F93AF93BF93EF93FF9357
:10198000E0910E01F0910F010995FF91EF91BF9148
:10199000AF919F918F917F916F915F914F913F9107
:1019A0002F910F900FBE0F901F9018951F920F92BE
:1019B0000FB60F9211242F933F934F935F936F9322
:1019C0007F938F939F93AF93BF93EF93FF93E09198
:1019D0000C01F0910D010995FF91EF91BF91AF912D
:1019E0009F918F917F916F915F914F913F912F9137
:1019F0000F900FBE0F901F9018951F920F920FB669
:101A00000F9211242F933F934F935F936F937F9384
:101A10008F939F93AF93BF93EF93FF93E0910A014E
:101A2000F0910B010995FF91EF91BF91AF919F91BB
:101A30008F917F916F915F914F913F912F910F9077
:101A40000FBE0F901F9018951F920F920FB60F9216
:101A500011242F933F934F935F936F937F938F93B3
:101A60009F938CB190E09595879595958795482F94
:101A7000417023B130E054E0359527955A95E1F750
:101A80008227932781702091050250910402609172
:101A9000020270910302982F9227292F30E0942F91
:101AA0009527291B3109260F371F309303022093F6
:101AB00002022091040290910502821729F0491731
:101AC00019F091E090930102809304024093050283
:101AD0009F918F917F916F915F914F913F912F9146
:101AE0000F900FBE0F901F901895FC01809121025E
:101AF000811103C08FEF9FEF08959FB7F89482E0A4
:101B00008093E9002091F20030E01216130614F4DD
:101B100021E030E02115310559F0289884E68093C2
:101B200020028091F10080838091F200882319F0D7
:101B30009FBFC90108958BE68093E800F9CFCF934A
:101B4000DF931F92CDB7DEB76983DC01ED91FC9185
:101B50000280F381E02D41E050E0BE016F5F7F4FD6
:101B600009950F90DF91CF91089583E08093E9006C
:101B70008091F200882319F08AE38093E8000895A9
:101B8000CF93DF931F92CDB7DEB7FC018485958597
:101B900097FD05C02FEF3FEF358724870BC0CE019F
:101BA00001960E94750D019719F4898190E002C099
:101BB0008FEF9FEF0F90DF91CF9108950F931F93B9
:101BC000CF93DF931F92CDB7DEB78C01FC018485E4
:101BD000958597FF0EC0CE0101960E94750D019765
:101BE00019F4298130E002C02FEF3FEFF80135876B
:101BF0002487F801848595850F90DF91CF911F91FF
:101C00000F910895FC018485958597FD0BC09FB7C2
:101C1000F89482E08093E9008091F2009FBF90E009
:101C2000019608959FB7F89482E08093E90080912F
:101C3000F2009FBF90E008958F929F92AF92BF9263
:101C40000F931F93CF93DF93CDB7DEB7A1970FB656
:101C5000F894DEBF0FBECDBF19A2423008F44AE0AF
:101C60008E010F5D1F4F842E912CA12CB12CA5014C
:101C700094010E942B12E62FB901CA0101501109EB
:101C8000EA3014F4E05D01C0E95CD801EC93232B49
:101C9000242B252B61F701151105A1F0F801019006
:101CA0000020E9F73197AF01401B510BE09134025E
:101CB000F09135020280F381E02DB80184E392E0D7
:101CC000099502C080E090E0A1960FB6F894DEBFBF
:101CD0000FBECDBFDF91CF911F910F91BF90AF90FD
:101CE0009F908F9008957F928F929F92AF92BF9214
:101CF000CF92DF92EF92FF920F931F93CF93DF93D8
:101D00006C015B017A0180911F01882309F46BC08B
:101D100080912102882309F466C080911F0280FF10
:101D200005C08091E00082608093E000E70110E050
:101D30000AEF83E0982E90E4792E2AE3822E2097F2
:101D400009F448C08FB7F8949092E9009091E800A8
:101D500095FF06C09091F200272D291B922F01C0FC
:101D600090E08FBF91110AC0015009F43CC061E0BE
:101D700070E080E090E00E94DD0BE1CF292F30E0A1
:101D8000C217D3070CF49C2F8FB7F8949092E900F8
:101D90002091E80025FF1CC0292F30E0C21BD30B87
:101DA000F501915020F041914093F100FACFA20E3D
:101DB000B31E112319F08092E80009C09091E80049
:101DC00095FD06C08092E80011E0209709F010E030
:101DD0008FBFB5CF1111B6CF5D9884E680933B02DB
:101DE0001E141F0444F081E090E0F6019383828387
:101DF00080E090E001C0C701DF91CF911F910F916A
:101E0000FF90EF90DF90CF90BF90AF909F908F901A
:101E10007F900895CF92DF92EF92FF92CF93DF935E
:101E20006C01990FEE08FF08F7FE1FC0E091340225
:101E3000F09135020190F081E02D6DE284E392E0B3
:101E40000995EC0166277727CB016C197D098E096E
:101E50009F094AE00E941C0E8C0F9D1FDF91CF91BD
:101E6000FF90EF90DF90CF9008954AE0C701B60150
:101E7000DF91CF91FF90EF90DF90CF900C941C0EEC
:101E80000F931F93CF93DF938C01C0E0D0E0F80154
:101E9000EC0FFD1F6491662371F0E0913402F09124
:101EA00035020190F081E02D84E392E00995892BC1
:101EB00011F02196ECCFCE01DF91CF911F910F91C0
:101EC000089580912F028F3F61F061E00E94EA0A3D
:101ED00060E080912F020E94BA0A8BE193E00197A3
:101EE000F1F708958091400281110DC082E0809346
:101EF0003C0284E080933D0210923F0210923E0229
:101F000081E0809340028CE392E008951F920F924B
:101F10000FB60F9211248F939F938091E1009091BF
:101F2000E100937F9093E10083FF0FC01092E900DE
:101F300091E09093EB001092EC0092E39093ED000F
:101F40001092210298E09093F00082FF20C093E06D
:101F50009093E9009091F200992319F09AE39093FD
:101F6000E80090913B02992339F090913B02915007
:101F700090933B02992389F190912002992339F0A3
:101F800090912002915090932002992341F184FF77
:101F900010C08091E2008E7E81608093E20080918B
:101FA000E1008F7E8093E10080911F028E7E806130
:101FB00011C080FF16C08091E2008E7E8061809308
:101FC000E2008091E1008E7E8093E10080911F020B
:101FD0008E7E816080931F0204C05D9ACDCF289AC7
:101FE000D6CF9F918F910F900FBE0F901F90189595
:101FF0008FE691E0909323028093220280912C023D
:1020000090912D02009711F00E94211380912602D9
:1020100090912702009711F00E94211380912A02CB
:1020200090912B02009711F00E94211380912402BD
:1020300090912502009711F00E94211380912802AF
:1020400090912902009711F00C9421130895CF92DA
:10205000DF92EF92FF920F931F93CF93DF931F9224
:10206000CDB7DEB7182F062FE42E862F880F8E5F90
:1020700099830E94660783E00E946607F12EC12EB5
:102080009981D92E8C2D8F19801798F4F601E7FECF
:1020900002C0849101C080810E946607182F80E0F1
:1020A0000E9466078123FFEFCF1ADF0A8111EACF72
:1020B00001C081E00F90DF91CF911F910F91FF90B0
:1020C000EF90DF90CF900895CF93DF9300D01F92D1
:1020D000CDB7DEB7789484B5826084BD84B5816065
:1020E00084BD85B5826085BD85B5816085BD8091E3
:1020F0006E00816080936E0010928100809181005B
:102100008260809381008091810081608093810052
:102110008091800081608093800080919100826036
:1021200080939100809191008160809391008091D3
:1021300090008160809390008091C10084608093C2
:10214000C1008091C10082608093C1008091C10074
:1021500081608093C1008091C30081608093C3003F
:102160008091C00082608093C0008091C200816035
:102170008093C20080917A00846080937A0080917D
:102180007A00826080937A0080917A0081608093E7
:102190007A0080917A00806880937A001092210200
:1021A00010921E0210921F028091D70081608093CE
:1021B000D70080EA8093D80089B5806189BD89B550
:1021C000826089BD09B400FEFDCF61E070E080E06F
:1021D00090E00E94DD0B8091D8008F7C806180931D
:1021E000D8008091E000807F8093E0008091E10042
:1021F0008E7E8093E1008DE08093E200559A209AD4
:10220000EEEFFFE7859194918B3F9C4D19F481E0AF
:1022100080931D0282E1898385E18A838CE08B8330
:102220001092250210922402109227021092260288
:10223000109229021092280210922B0210922A0268
:10224000109233021092320283E080932E0280912A
:102250002C0290912D02892B11F080E00BC083E0BD
:1022600090E00E948C1290932D0280932C02892B77
:10227000A1F719C090912E02891790F4282F30E011
:10228000E0912C02F0912D02E20FF31FA1E0B0E0EB
:10229000AC0FBD1FA20FB31F9C9190838F5FEACF3D
:1022A0008BE080932F0280ED97E090933102809332
:1022B00030020BE113E080E0E82E80E0F82E809100
:1022C0002F028F3F59F061E00E94EA0A61E080919D
:1022D0002F020E94BA0AC8010197F1F7E091220289
:1022E000F09123020190F081E02D63E172E082E23F
:1022F00092E009950E94610F80911302909114025F
:10230000909312028093110280911702909118020B
:102310009093100280930F0261E084E392E00E94A8
:10232000A3038FE39FE10197F1F700C0000084E56C
:1023300091E00E94400F80911102909112020E9440
:102340000A0F60EC84E392E00E94A30395EC9A9557
:10235000F1F7000081E591E00E94400F80910F02AB
:10236000909110020E940A0F64EF71E080E090E00B
:102370000E94DD0BE114F10409F4A1CF0E940000DA
:102380009ECFE8E4F2E01382128288EE93E0A0E0B0
:10239000B0E084839583A683B78329E431E0318359
:1023A00020832FEF3FEF35872487E8E9F2E013829F
:1023B000128284839583A683B78389E591E0918314
:1023C0008083E4E3F2E01382128214828BE791E0CF
:1023D00091838083E2E2F2E01382128215821482FA
:1023E00017821682118610861386128685E791E081
:1023F000918380830895DB018F939F930E948112C4
:10240000BF91AF91A29F800D911DA39F900DB29F90
:10241000900D11240895991B79E004C0991F961717
:1024200008F0961B881F7A95C9F780950895AA1B16
:10243000BB1B51E107C0AA1FBB1FA617B70710F0AF
:10244000A61BB70B881F991F5A95A9F780959095E1
:10245000BC01CD010895A1E21A2EAA1BBB1BFD01F0
:102460000DC0AA1FBB1FEE1FFF1FA217B307E40773
:10247000F50720F0A21BB30BE40BF50B661F771FCB
:10248000881F991F1A9469F76095709580959095AB
:102490009B01AC01BD01CF010895052E97FB1EF4F1
:1024A00000940E94641257FD07D00E942B1207FC73
:1024B00003D04EF40C9464125095409530952195BC
:1024C0003F4F4F4F5F4F0895909580957095619560
:1024D0007F4F8F4F9F4F0895EE0FFF1F0590F49190
:1024E000E02D0994A29FB001B39FC001A39F700D7E
:1024F000811D1124911DB29F700D811D1124911D0C
:1025000008950E947212A59F900DB49F900DA49FF4
:10251000800D911D11240895CF93DF938230910592
:1025200010F482E090E0E091A602F091A70220E092
:1025300030E0C0E0D0E0309711F140815181481780
:102540005907C0F04817590761F482819381209799
:1025500019F09B838A832BC09093A7028093A602D5
:1025600026C02115310519F04217530718F49A01B6
:10257000BE01DF01EF010280F381E02DDCCF2115E8
:10258000310509F1281B390B2430310590F41296DE
:102590008D919C9113976115710521F0FB01938337
:1025A000828304C09093A7028093A602FD01329615
:1025B00044C0FD01E20FF31F819391932250310932
:1025C0002D933C933AC02091A4023091A502232B75
:1025D00041F420912201309123013093A5022093F0
:1025E000A40220912001309121012115310541F4EF
:1025F0002DB73EB74091240150912501241B350B86
:10260000E091A402F091A502E217F307A0F42E1BBB
:102610003F0B2817390778F0AC014E5F5F4F241746
:10262000350748F04E0F5F1F5093A5024093A40258
:102630008193919302C0E0E0F0E0CF01DF91CF9170
:1026400008950F931F93CF93DF93009709F48CC0E5
:10265000FC013297138212820091A6021091A70208
:102660000115110581F420813181820F931F209182
:10267000A4023091A5022817390779F5F093A50235
:10268000E093A40271C0D80140E050E0AE17BF074C
:1026900050F412962D913C911397AD0121153105FF
:1026A00009F1D901F3CF9D01DA01338322836081DF
:1026B0007181860F971F8217930769F4EC012881B7
:1026C0003981260F371F2E5F3F4F318320838A8148
:1026D0009B8193838283452B29F4F093A702E09397
:1026E000A60242C01396FC93EE931297ED01499116
:1026F00059919E01240F351FE217F30771F4808171
:102700009181840F951F029611969C938E938281DE
:10271000938113969C938E931297E0E0F0E0D8019A
:1027200012968D919C911397009719F0F8018C01E6
:10273000F6CF8D919C9198012E5F3F4F820F931F92
:102740002091A4023091A5022817390769F4309727
:1027500029F41092A7021092A60202C013821282DC
:102760001093A5020093A402DF91CF911F910F91C6
:10277000089581E090E0F8940C94BE1310E0C7EE49
:10278000D0E004C0FE010E946C122196C83ED10721
:06279000C9F7F894FFCF29
:102796000F00F401D0070400040155085508550838
:1027A60055085508FFFFFFFF00E10000000000008C
:1027B6000000A80280009C01B501CF01EA010702D2
:1027C6002602470269028E02B502DE020A0300C132
:1027D6008081000000000000009F0D730E020EC0F5
:1027E6000DDE0DB50D00000000C802B402AD02AA50
:1027F60002A702A60200000000260B0000000088C7
:102806000800000000260B0000000035041304D960
:0428160002010300B8
:00000001FF
